{
  "contractName": "Initializable",
  "abi": [
    {
      "constant": true,
      "inputs": [],
      "name": "initialized",
      "outputs": [
        {
          "name": "",
          "type": "bool"
        }
      ],
      "payable": false,
      "stateMutability": "view",
      "type": "function"
    }
  ],
  "bytecode": "0x6080604052348015600f57600080fd5b50608b8061001e6000396000f3fe6080604052348015600f57600080fd5b506004361060285760003560e01c8063158ef93e14602d575b600080fd5b6033604d565b604051808215151515815260200191505060405180910390f35b6000809054906101000a900460ff168156fea165627a7a723058209b47e40b21acb173ba3780e20d85adef72f3e7c6029e19260437620bacfe7b6f0029",
  "source": "pragma solidity ^0.5.8;\n\n\ncontract Initializable {\n  bool public initialized;\n\n  modifier initializer() {\n    require(!initialized);\n    initialized = true;\n    _;\n  }\n}\n",
  "sourcePath": "/Users/cmcewen/celo/savings-circle-demo/contracts/Initializable.sol",
  "compiler": {
    "name": "solc",
    "version": "0.5.8+commit.23d335f2.Emscripten.clang"
  },
  "schemaVersion": "3.0.11",
  "updatedAt": "2020-02-24T19:45:05.036Z",
  "devdoc": {
    "methods": {}
  },
  "userdoc": {
    "methods": {}
  }
}