{
  "contractName": "SavingsCircle",
  "abi": [
    {
      "constant": true,
      "inputs": [],
      "name": "initialized",
      "outputs": [
        {
          "name": "",
          "type": "bool"
        }
      ],
      "payable": false,
      "stateMutability": "view",
      "type": "function"
    },
    {
      "constant": false,
      "inputs": [],
      "name": "renounceOwnership",
      "outputs": [],
      "payable": false,
      "stateMutability": "nonpayable",
      "type": "function"
    },
    {
      "constant": true,
      "inputs": [],
      "name": "owner",
      "outputs": [
        {
          "name": "",
          "type": "address"
        }
      ],
      "payable": false,
      "stateMutability": "view",
      "type": "function"
    },
    {
      "constant": true,
      "inputs": [],
      "name": "isOwner",
      "outputs": [
        {
          "name": "",
          "type": "bool"
        }
      ],
      "payable": false,
      "stateMutability": "view",
      "type": "function"
    },
    {
      "constant": false,
      "inputs": [
        {
          "name": "newOwner",
          "type": "address"
        }
      ],
      "name": "transferOwnership",
      "outputs": [],
      "payable": false,
      "stateMutability": "nonpayable",
      "type": "function"
    },
    {
      "anonymous": false,
      "inputs": [
        {
          "indexed": true,
          "name": "previousOwner",
          "type": "address"
        },
        {
          "indexed": true,
          "name": "newOwner",
          "type": "address"
        }
      ],
      "name": "OwnershipTransferred",
      "type": "event"
    },
    {
      "constant": false,
      "inputs": [],
      "name": "initialize",
      "outputs": [],
      "payable": false,
      "stateMutability": "nonpayable",
      "type": "function"
    },
    {
      "constant": true,
      "inputs": [
        {
          "name": "hashedName",
          "type": "bytes32"
        }
      ],
      "name": "circleMembers",
      "outputs": [
        {
          "name": "",
          "type": "address[]"
        }
      ],
      "payable": false,
      "stateMutability": "view",
      "type": "function"
    },
    {
      "constant": true,
      "inputs": [
        {
          "name": "user",
          "type": "address"
        }
      ],
      "name": "circlesFor",
      "outputs": [
        {
          "name": "",
          "type": "bytes32[]"
        }
      ],
      "payable": false,
      "stateMutability": "view",
      "type": "function"
    },
    {
      "constant": true,
      "inputs": [
        {
          "name": "hashedName",
          "type": "bytes32"
        }
      ],
      "name": "circleInfo",
      "outputs": [
        {
          "name": "",
          "type": "string"
        },
        {
          "name": "",
          "type": "address[]"
        },
        {
          "name": "",
          "type": "address"
        },
        {
          "name": "",
          "type": "uint256"
        },
        {
          "name": "",
          "type": "uint256"
        }
      ],
      "payable": false,
      "stateMutability": "view",
      "type": "function"
    },
    {
      "constant": false,
      "inputs": [
        {
          "name": "name",
          "type": "string"
        },
        {
          "name": "members",
          "type": "address[]"
        },
        {
          "name": "tokenAddress",
          "type": "address"
        },
        {
          "name": "depositAmount",
          "type": "uint256"
        }
      ],
      "name": "addCircle",
      "outputs": [],
      "payable": false,
      "stateMutability": "nonpayable",
      "type": "function"
    },
    {
      "constant": true,
      "inputs": [
        {
          "name": "hashedName",
          "type": "bytes32"
        }
      ],
      "name": "balancesForCircle",
      "outputs": [
        {
          "name": "",
          "type": "address[]"
        },
        {
          "name": "",
          "type": "uint256[]"
        }
      ],
      "payable": false,
      "stateMutability": "view",
      "type": "function"
    },
    {
      "constant": false,
      "inputs": [
        {
          "name": "hashedName",
          "type": "bytes32"
        },
        {
          "name": "value",
          "type": "uint256"
        }
      ],
      "name": "contribute",
      "outputs": [],
      "payable": false,
      "stateMutability": "nonpayable",
      "type": "function"
    },
    {
      "constant": true,
      "inputs": [
        {
          "name": "hashedName",
          "type": "bytes32"
        }
      ],
      "name": "withdrawable",
      "outputs": [
        {
          "name": "",
          "type": "bool"
        }
      ],
      "payable": false,
      "stateMutability": "view",
      "type": "function"
    },
    {
      "constant": false,
      "inputs": [
        {
          "name": "hashedName",
          "type": "bytes32"
        }
      ],
      "name": "withdraw",
      "outputs": [],
      "payable": false,
      "stateMutability": "nonpayable",
      "type": "function"
    }
  ],
  "bytecode": "0x6080604052600160008190555033600160006101000a81548173ffffffffffffffffffffffffffffffffffffffff021916908373ffffffffffffffffffffffffffffffffffffffff160217905550600160009054906101000a900473ffffffffffffffffffffffffffffffffffffffff1673ffffffffffffffffffffffffffffffffffffffff16600073ffffffffffffffffffffffffffffffffffffffff167f8be0079c531659141344cd1fd0a4f28419497f9722a3daafe3b4186f6b6457e060405160405180910390a3611ed2806100d96000396000f3fe608060405234801561001057600080fd5b50600436106100ea5760003560e01c80638f32d59b1161008c578063c34bab1f11610066578063c34bab1f146103a1578063f1370c5114610424578063f2fde38b1461051c578063fed72cdf14610560576100ea565b80638f32d59b146102ae578063a2b006f7146102d0578063b953964214610369576100ea565b80637cf43d8c116100c85780637cf43d8c146101e65780638129fc1c1461022c5780638da5cb5b146102365780638e19899e14610280576100ea565b8063158ef93e146100ef578063206c08dc14610111578063715018a6146101dc575b600080fd5b6100f7610690565b604051808215151515815260200191505060405180910390f35b61013d6004803603602081101561012757600080fd5b81019080803590602001909291905050506106a3565b604051808060200180602001838103835285818151815260200191508051906020019060200280838360005b83811015610184578082015181840152602081019050610169565b50505050905001838103825284818151815260200191508051906020019060200280838360005b838110156101c65780820151818401526020810190506101ab565b5050505090500194505050505060405180910390f35b6101e46108c4565b005b610212600480360360208110156101fc57600080fd5b81019080803590602001909291905050506109ff565b604051808215151515815260200191505060405180910390f35b610234610b64565b005b61023e610ba3565b604051808273ffffffffffffffffffffffffffffffffffffffff1673ffffffffffffffffffffffffffffffffffffffff16815260200191505060405180910390f35b6102ac6004803603602081101561029657600080fd5b8101908080359060200190929190505050610bcd565b005b6102b66110c7565b604051808215151515815260200191505060405180910390f35b610312600480360360208110156102e657600080fd5b81019080803573ffffffffffffffffffffffffffffffffffffffff16906020019092919050505061111f565b6040518080602001828103825283818151815260200191508051906020019060200280838360005b8381101561035557808201518184015260208101905061033a565b505050509050019250505060405180910390f35b61039f6004803603604081101561037f57600080fd5b8101908080359060200190929190803590602001909291905050506111b6565b005b6103cd600480360360208110156103b757600080fd5b8101908080359060200190929190505050611475565b6040518080602001828103825283818151815260200191508051906020019060200280838360005b838110156104105780820151818401526020810190506103f5565b505050509050019250505060405180910390f35b61051a6004803603608081101561043a57600080fd5b810190808035906020019064010000000081111561045757600080fd5b82018360208201111561046957600080fd5b8035906020019184600183028401116401000000008311171561048b57600080fd5b9091929391929390803590602001906401000000008111156104ac57600080fd5b8201836020820111156104be57600080fd5b803590602001918460208302840111640100000000831117156104e057600080fd5b9091929391929390803573ffffffffffffffffffffffffffffffffffffffff16906020019092919080359060200190929190505050611519565b005b61055e6004803603602081101561053257600080fd5b81019080803573ffffffffffffffffffffffffffffffffffffffff16906020019092919050505061175d565b005b61058c6004803603602081101561057657600080fd5b81019080803590602001909291905050506117e3565b6040518080602001806020018673ffffffffffffffffffffffffffffffffffffffff1673ffffffffffffffffffffffffffffffffffffffff168152602001858152602001848152602001838103835288818151815260200191508051906020019080838360005b8381101561060e5780820151818401526020810190506105f3565b50505050905090810190601f16801561063b5780820380516001836020036101000a031916815260200191505b50838103825287818151815260200191508051906020019060200280838360005b8381101561067757808201518184015260208101905061065c565b5050505090500197505050505050505060405180910390f35b600160149054906101000a900460ff1681565b606080600060026000858152602001908152602001600020905060008160020180549050141561073b576040517f08c379a00000000000000000000000000000000000000000000000000000000081526004018080602001828103825260158152602001807f436972636c6520646f6573206e6f74206578697374000000000000000000000081525060200191505060405180910390fd5b606081600201805490506040519080825280602002602001820160405280156107735781602001602082028038833980820191505090505b50905060008090505b826002018054905081101561082b578260070160008460020183815481106107a057fe5b9060005260206000200160009054906101000a900473ffffffffffffffffffffffffffffffffffffffff1673ffffffffffffffffffffffffffffffffffffffff1673ffffffffffffffffffffffffffffffffffffffff1681526020019081526020016000205482828151811061081257fe5b602002602001018181525050808060010191505061077c565b508160020181818054806020026020016040519081016040528092919081815260200182805480156108b257602002820191906000526020600020905b8160009054906101000a900473ffffffffffffffffffffffffffffffffffffffff1673ffffffffffffffffffffffffffffffffffffffff1681526020019060010190808311610868575b50505050509150935093505050915091565b6108cc6110c7565b61093e576040517f08c379a00000000000000000000000000000000000000000000000000000000081526004018080602001828103825260208152602001807f4f776e61626c653a2063616c6c6572206973206e6f7420746865206f776e657281525060200191505060405180910390fd5b600073ffffffffffffffffffffffffffffffffffffffff16600160009054906101000a900473ffffffffffffffffffffffffffffffffffffffff1673ffffffffffffffffffffffffffffffffffffffff167f8be0079c531659141344cd1fd0a4f28419497f9722a3daafe3b4186f6b6457e060405160405180910390a36000600160006101000a81548173ffffffffffffffffffffffffffffffffffffffff021916908373ffffffffffffffffffffffffffffffffffffffff160217905550565b600080600260008481526020019081526020016000209050600081600201805490501415610a95576040517f08c379a00000000000000000000000000000000000000000000000000000000081526004018080602001828103825260158152602001807f436972636c6520646f6573206e6f74206578697374000000000000000000000081525060200191505060405180910390fd5b60008090505b8160020180549050811015610b58578160040154826007016000846002018481548110610ac457fe5b9060005260206000200160009054906101000a900473ffffffffffffffffffffffffffffffffffffffff1673ffffffffffffffffffffffffffffffffffffffff1673ffffffffffffffffffffffffffffffffffffffff16815260200190815260200160002054108015610b3b575080826003015414155b15610b4b57600092505050610b5f565b8080600101915050610a9b565b5060019150505b919050565b600160149054906101000a900460ff1615610b7e57600080fd5b60018060146101000a81548160ff021916908315150217905550610ba133611970565b565b6000600160009054906101000a900473ffffffffffffffffffffffffffffffffffffffff16905090565b6000600260008381526020019081526020016000209050600081600201805490501415610c62576040517f08c379a00000000000000000000000000000000000000000000000000000000081526004018080602001828103825260158152602001807f436972636c6520646f6573206e6f74206578697374000000000000000000000081525060200191505060405180910390fd5b610c6b826109ff565b610cdd576040517f08c379a000000000000000000000000000000000000000000000000000000000815260040180806020018281038252601a8152602001807f436972636c65206973206e6f7420776974686472617761626c6500000000000081525060200191505060405180910390fd5b3373ffffffffffffffffffffffffffffffffffffffff1681600201826003015481548110610d0757fe5b9060005260206000200160009054906101000a900473ffffffffffffffffffffffffffffffffffffffff1673ffffffffffffffffffffffffffffffffffffffff1614610dbb576040517f08c379a00000000000000000000000000000000000000000000000000000000081526004018080602001828103825260118152602001807f49742773206e6f74206f7572207475726e00000000000000000000000000000081525060200191505060405180910390fd5b8060050160009054906101000a900473ffffffffffffffffffffffffffffffffffffffff1673ffffffffffffffffffffffffffffffffffffffff1663a9059cbb33610e2d610e1a60018660020180549050611ab690919063ffffffff16565b8560040154611b3f90919063ffffffff16565b6040518363ffffffff1660e01b8152600401808373ffffffffffffffffffffffffffffffffffffffff1673ffffffffffffffffffffffffffffffffffffffff16815260200182815260200192505050602060405180830381600087803b158015610e9657600080fd5b505af1158015610eaa573d6000803e3d6000fd5b505050506040513d6020811015610ec057600080fd5b8101908080519060200190929190505050610f43576040517f08c379a000000000000000000000000000000000000000000000000000000000815260040180806020018281038252601d8152602001807f5472616e73666572206f66207769746864726177616c206661696c656400000081525060200191505060405180910390fd5b60008090505b8160020180549050811015611080578082600301541461107357610ff48260040154836007016000856002018581548110610f8057fe5b9060005260206000200160009054906101000a900473ffffffffffffffffffffffffffffffffffffffff1673ffffffffffffffffffffffffffffffffffffffff1673ffffffffffffffffffffffffffffffffffffffff16815260200190815260200160002054611ab690919063ffffffff16565b82600701600084600201848154811061100957fe5b9060005260206000200160009054906101000a900473ffffffffffffffffffffffffffffffffffffffff1673ffffffffffffffffffffffffffffffffffffffff1673ffffffffffffffffffffffffffffffffffffffff168152602001908152602001600020819055505b8080600101915050610f49565b506110b281600201805490506110a460018460030154611bc590919063ffffffff16565b611c4d90919063ffffffff16565b81600301819055504281600601819055505050565b6000600160009054906101000a900473ffffffffffffffffffffffffffffffffffffffff1673ffffffffffffffffffffffffffffffffffffffff163373ffffffffffffffffffffffffffffffffffffffff1614905090565b6060600360008373ffffffffffffffffffffffffffffffffffffffff1673ffffffffffffffffffffffffffffffffffffffff1681526020019081526020016000208054806020026020016040519081016040528092919081815260200182805480156111aa57602002820191906000526020600020905b815481526020019060010190808311611196575b50505050509050919050565b600060026000848152602001908152602001600020905060008160020180549050141561124b576040517f08c379a00000000000000000000000000000000000000000000000000000000081526004018080602001828103825260158152602001807f436972636c6520646f6573206e6f74206578697374000000000000000000000081525060200191505060405180910390fd5b8060050160009054906101000a900473ffffffffffffffffffffffffffffffffffffffff1673ffffffffffffffffffffffffffffffffffffffff166323b872dd3330856040518463ffffffff1660e01b8152600401808473ffffffffffffffffffffffffffffffffffffffff1673ffffffffffffffffffffffffffffffffffffffff1681526020018373ffffffffffffffffffffffffffffffffffffffff1673ffffffffffffffffffffffffffffffffffffffff1681526020018281526020019350505050602060405180830381600087803b15801561132a57600080fd5b505af115801561133e573d6000803e3d6000fd5b505050506040513d602081101561135457600080fd5b81019080805190602001909291905050506113d7576040517f08c379a000000000000000000000000000000000000000000000000000000000815260040180806020018281038252601f8152602001807f5472616e73666572206f6620636f6e747269627574696f6e206661696c65640081525060200191505060405180910390fd5b61142b828260070160003373ffffffffffffffffffffffffffffffffffffffff1673ffffffffffffffffffffffffffffffffffffffff16815260200190815260200160002054611bc590919063ffffffff16565b8160070160003373ffffffffffffffffffffffffffffffffffffffff1673ffffffffffffffffffffffffffffffffffffffff16815260200190815260200160002081905550505050565b60606002600083815260200190815260200160002060020180548060200260200160405190810160405280929190818152602001828054801561150d57602002820191906000526020600020905b8160009054906101000a900473ffffffffffffffffffffffffffffffffffffffff1673ffffffffffffffffffffffffffffffffffffffff16815260200190600101908083116114c3575b50505050509050919050565b60008686604051602001808383808284378083019250505092505050604051602081830303815290604052805190602001209050600061155882611475565b51146115cc576040517f08c379a00000000000000000000000000000000000000000000000000000000081526004018080602001828103825260148152602001807f416c726561647920616464656420636972636c6500000000000000000000000081525060200191505060405180910390fd5b6000600260008381526020019081526020016000209050338160000160006101000a81548173ffffffffffffffffffffffffffffffffffffffff021916908373ffffffffffffffffffffffffffffffffffffffff1602179055508585826002019190611639929190611cd7565b50838160050160006101000a81548173ffffffffffffffffffffffffffffffffffffffff021916908373ffffffffffffffffffffffffffffffffffffffff1602179055508281600401819055508787826001019190611699929190611d77565b5042816006018190555060008090505b8686905081101561175257600360008888848181106116c457fe5b9050602002013573ffffffffffffffffffffffffffffffffffffffff1673ffffffffffffffffffffffffffffffffffffffff1673ffffffffffffffffffffffffffffffffffffffff16815260200190815260200160002083908060018154018082558091505090600182039060005260206000200160009091929091909150555080806001019150506116a9565b505050505050505050565b6117656110c7565b6117d7576040517f08c379a00000000000000000000000000000000000000000000000000000000081526004018080602001828103825260208152602001807f4f776e61626c653a2063616c6c6572206973206e6f7420746865206f776e657281525060200191505060405180910390fd5b6117e081611970565b50565b60608060008060008060026000888152602001908152602001600020905080600101816002018260050160009054906101000a900473ffffffffffffffffffffffffffffffffffffffff1683600401548460060154848054600181600116156101000203166002900480601f0160208091040260200160405190810160405280929190818152602001828054600181600116156101000203166002900480156118cd5780601f106118a2576101008083540402835291602001916118cd565b820191906000526020600020905b8154815290600101906020018083116118b057829003601f168201915b505050505094508380548060200260200160405190810160405280929190818152602001828054801561195557602002820191906000526020600020905b8160009054906101000a900473ffffffffffffffffffffffffffffffffffffffff1673ffffffffffffffffffffffffffffffffffffffff168152602001906001019080831161190b575b50505050509350955095509550955095505091939590929450565b600073ffffffffffffffffffffffffffffffffffffffff168173ffffffffffffffffffffffffffffffffffffffff1614156119f6576040517f08c379a0000000000000000000000000000000000000000000000000000000008152600401808060200182810382526026815260200180611e606026913960400191505060405180910390fd5b8073ffffffffffffffffffffffffffffffffffffffff16600160009054906101000a900473ffffffffffffffffffffffffffffffffffffffff1673ffffffffffffffffffffffffffffffffffffffff167f8be0079c531659141344cd1fd0a4f28419497f9722a3daafe3b4186f6b6457e060405160405180910390a380600160006101000a81548173ffffffffffffffffffffffffffffffffffffffff021916908373ffffffffffffffffffffffffffffffffffffffff16021790555050565b600082821115611b2e576040517f08c379a000000000000000000000000000000000000000000000000000000000815260040180806020018281038252601e8152602001807f536166654d6174683a207375627472616374696f6e206f766572666c6f77000081525060200191505060405180910390fd5b600082840390508091505092915050565b600080831415611b525760009050611bbf565b6000828402905082848281611b6357fe5b0414611bba576040517f08c379a0000000000000000000000000000000000000000000000000000000008152600401808060200182810382526021815260200180611e866021913960400191505060405180910390fd5b809150505b92915050565b600080828401905083811015611c43576040517f08c379a000000000000000000000000000000000000000000000000000000000815260040180806020018281038252601b8152602001807f536166654d6174683a206164646974696f6e206f766572666c6f77000000000081525060200191505060405180910390fd5b8091505092915050565b600080821415611cc5576040517f08c379a00000000000000000000000000000000000000000000000000000000081526004018080602001828103825260188152602001807f536166654d6174683a206d6f64756c6f206279207a65726f000000000000000081525060200191505060405180910390fd5b818381611cce57fe5b06905092915050565b828054828255906000526020600020908101928215611d66579160200282015b82811115611d6557823573ffffffffffffffffffffffffffffffffffffffff168260006101000a81548173ffffffffffffffffffffffffffffffffffffffff021916908373ffffffffffffffffffffffffffffffffffffffff16021790555091602001919060010190611cf7565b5b509050611d739190611df7565b5090565b828054600181600116156101000203166002900490600052602060002090601f016020900481019282601f10611db857803560ff1916838001178555611de6565b82800160010185558215611de6579182015b82811115611de5578235825591602001919060010190611dca565b5b509050611df39190611e3a565b5090565b611e3791905b80821115611e3357600081816101000a81549073ffffffffffffffffffffffffffffffffffffffff021916905550600101611dfd565b5090565b90565b611e5c91905b80821115611e58576000816000905550600101611e40565b5090565b9056fe4f776e61626c653a206e6577206f776e657220697320746865207a65726f2061646472657373536166654d6174683a206d756c7469706c69636174696f6e206f766572666c6f77a165627a7a7230582066baf37a387b20831c7a5b353732eab7d22dbe5cf5b108d2b5860b145364b4120029",
  "source": "pragma solidity ^0.5.8;\n\nimport \"openzeppelin-solidity/contracts/utils/ReentrancyGuard.sol\";\nimport \"openzeppelin-solidity/contracts/math/SafeMath.sol\";\nimport \"openzeppelin-solidity/contracts/ownership/Ownable.sol\";\nimport \"openzeppelin-solidity/contracts/token/ERC20/ERC20.sol\";\n\nimport \"./Initializable.sol\";\nimport \"./IERC20Token.sol\";\n\ncontract SavingsCircle is ReentrancyGuard, Ownable, Initializable {\n  using SafeMath for uint256;\n\n  struct Circle {\n    address owner;\n    string name;\n    address[] members;\n    uint256 currentIndex;\n    uint256 depositAmount;\n    address tokenAddress;\n    uint256 timestamp;\n    mapping(address => uint256) balances;\n  }\n  mapping (bytes32 => Circle) circles;\n  mapping (address => bytes32[]) circleMemberships;\n\n  function initialize(\n  ) external initializer {\n    _transferOwnership(msg.sender);\n  }\n\n  function circleMembers(bytes32 hashedName) public view returns (address[] memory) {\n    return circles[hashedName].members;\n  }\n\n  function circlesFor(address user) public view returns (bytes32[] memory) {\n    return circleMemberships[user];\n  }\n\n  function circleInfo(bytes32 hashedName) public view returns (string memory, address[] memory, address, uint256, uint256) {\n    Circle storage circle = circles[hashedName];\n    return (circle.name, circle.members, circle.tokenAddress, circle.depositAmount, circle.timestamp);\n  }\n\n  function addCircle(string calldata name, address[] calldata members, address tokenAddress, uint256 depositAmount) external {\n    bytes32 hashedName = keccak256(abi.encodePacked(name));\n\n    require(circleMembers(hashedName).length == 0, \"Already added circle\");\n\n    Circle storage circle = circles[hashedName];\n\n    circle.owner = msg.sender;\n    circle.members = members;\n    circle.tokenAddress = tokenAddress;\n    circle.depositAmount = depositAmount;\n    circle.name = name;\n    // solhint-disable-next-line not-rely-on-time\n    circle.timestamp = now;\n\n    for (uint256 index = 0; index < members.length; index++) {\n      circleMemberships[members[index]].push(hashedName);\n    }\n  }\n\n  function balancesForCircle(bytes32 hashedName) public view returns (address[] memory, uint256[] memory) {\n    Circle storage circle = circles[hashedName];\n\n    require(circle.members.length != 0, \"Circle does not exist\");\n\n    uint256[] memory balances = new uint256[](circle.members.length);\n\n    for (uint256 index = 0; index < circle.members.length; index++) {\n      balances[index] = circle.balances[circle.members[index]];\n    }\n\n    return (circle.members, balances);\n  }\n\n\n  function contribute(bytes32 hashedName, uint256 value) external{\n    Circle storage circle = circles[hashedName];\n\n    require(circle.members.length != 0, \"Circle does not exist\");\n\n    require(\n      IERC20Token(circle.tokenAddress).transferFrom(\n        msg.sender,\n        address(this),\n        value\n      ),\n      \"Transfer of contribution failed\"\n    );\n\n    circle.balances[msg.sender] = circle.balances[msg.sender].add(value);\n  }\n\n  function withdrawable(bytes32 hashedName) public view returns (bool) {\n    Circle storage circle = circles[hashedName];\n\n    require(circle.members.length != 0, \"Circle does not exist\");\n\n    for (uint256 index = 0; index < circle.members.length; index++) {\n      if (circle.balances[circle.members[index]] < circle.depositAmount && circle.currentIndex != index) {\n        return false;\n      }\n    }\n\n    return true;\n  }\n\n  function withdraw(bytes32 hashedName) external {\n    Circle storage circle = circles[hashedName];\n\n    require(circle.members.length != 0, \"Circle does not exist\");\n\n    require(withdrawable(hashedName), \"Circle is not withdrawable\");\n\n    require(circle.members[circle.currentIndex] == msg.sender, \"It's not our turn\");\n\n    require(\n      IERC20Token(circle.tokenAddress).transfer(\n        msg.sender,\n        circle.depositAmount.mul(circle.members.length.sub(1))\n      ),\n      \"Transfer of withdrawal failed\"\n    );\n\n    for (uint256 index = 0; index < circle.members.length; index++) {\n      if (circle.currentIndex != index) {\n        circle.balances[circle.members[index]] = circle.balances[circle.members[index]].sub(circle.depositAmount);\n      }\n    }\n\n    circle.currentIndex = circle.currentIndex.add(1).mod(circle.members.length);\n    // solhint-disable-next-line not-rely-on-time\n    circle.timestamp = now;\n  }\n}\n",
  "sourcePath": "/Users/nambrot/devstuff/foo/contracts/SavingsCircle.sol",
  "compiler": {
    "name": "solc",
    "version": "0.5.8+commit.23d335f2.Emscripten.clang"
  },
  "schemaVersion": "3.0.11",
  "updatedAt": "2019-08-04T20:25:07.808Z",
  "devdoc": {
    "methods": {
      "isOwner()": {
        "details": "Returns true if the caller is the current owner."
      },
      "owner()": {
        "details": "Returns the address of the current owner."
      },
      "renounceOwnership()": {
        "details": "Leaves the contract without owner. It will not be possible to call `onlyOwner` functions anymore. Can only be called by the current owner.     * > Note: Renouncing ownership will leave the contract without an owner, thereby removing any functionality that is only available to the owner."
      },
      "transferOwnership(address)": {
        "details": "Transfers ownership of the contract to a new account (`newOwner`). Can only be called by the current owner."
      }
    }
  },
  "userdoc": {
    "methods": {}
  }
}